:100000004DC000005BC0000059C0000057C0000098
:1000100055C0000053C0000051C000004FC0000098
:100020004DC000004BC0000049C0000047C00000A8
:1000300045C0000043C0000041C000003FC00000B8
:100040003DC000003BC0000039C0000037C00000C8
:1000500035C0000033C0000031C000002FC00000D8
:100060002DC000002BC0000029C0000027C00000E8
:1000700025C0000023C0000021C000001FC00000F8
:100080001DC000001BC0000019C000006B00720002
:10009000900094009C00A000A800AC0011241FBE9A
:1000A000CFEFD0E4DEBFCDBF21E0A0E0B1E001C0E2
:1000B0001D92A330B207E1F762D07BC0A1CFE091DF
:1000C00002018E2F90E08830910508F04DC0FC01B0
:1000D000EA5BFF4F65C087E08093010181E0809378
:1000E0000201089580910001813041F482E0809303
:1000F0000201809101018930D1F50895823041F4E7
:1001000084E080930201809101018823B9F133C01A
:100110008330A1F586E080930201109201010895D9
:1001200083E080930201089580910001813031F1D4
:1001300081E080930201089585E080930201089593
:10014000809100018230D1F081E080930201089516
:1001500087E08093020108958091000181110EC013
:1001600081E08093020108951092020108958F5F4B
:10017000809301010895815080930101089511B881
:100180008FEF82B984B915B81092020180B18095C1
:1001900083708093000193DF8091010185B9F6CFD0
:1001A000EE0FFF1F0024001C0BBE0790F691E02D00
:0601B0000994F894FFCF52
:00000001FF
